:020000040000FA
:020000000528D1
:080008006D28831603133D303F
:1000100092001F179F130F3085008601870188010A
:10002000061686168316031388309F00A821A82180
:10003000831203139214121517159715171297129E
:10004000950188018701C101C501383094210C3028
:10005000942102309421013094218B170B148B15BD
:10006000C108031D4528C508031D3D283728B920B0
:10007000C1208420C92097204928B920C12084208C
:10008000BD20C1209720C920492895011712971239
:100090004C208B218B2105280130942102309421A2
:1000A00053309E2159309E2153309E2154309E2141
:1000B00045309E214D309E212D309E214F309E2176
:1000C0004E309E212D309E2148309E214F309E2162
:1000D0004C309E2144309E210800B3000308B2003A
:1000E0000B1C7F2806080B10061A7928861A7B2815
:1000F0007F28C1097F28C108031D7F28C5098421E5
:100100003208830033080900831603131E08831284
:100110000313B4001930B50075213708B8001E0864
:10012000C0000A30B9006E213708B80708009E08E1
:100130000319A62801301E020319AA2802301E0244
:100140000319AF2803301E020319B42895011712B2
:1001500097120800153095001712971208002A30E0
:1001600095001716971208003D3095001716971640
:1001700008009F111F129F1208009F151F129F1247
:1001800008001F1484211F150C1FC4280C131F10F6
:10019000080001309421C5080319CF28EC2802304B
:1001A00094214D309E214F309E2144309E21453078
:1001B0009E212D309E2130309E2120309E213A30CC
:1001C0009E2120309E2141309E2155309E21543069
:1001D0009E214F309E210829023094214D309E21CE
:1001E0004F309E2144309E2145309E212D309E214E
:1001F00031309E2120309E213A309E2120309E2198
:100200004D309E2141309E214E309E2155309E2101
:10021000C730942153309E213A309E219E08031905
:1002200021291E08303E9E2130309E2130309E21F3
:1002300030309E2152309E2150309E214D309E21E3
:100240002B2930309E212D309E2152309E2150305E
:100250009E214D309E21C030942154309E213D304E
:100260009E2138084A213808093C031842293030B9
:1002700043079E21303044079E2163309E21DF30AA
:100280009E2108003808303E9E2163309E21DF30D9
:100290009E210800C8005521C20048085E21C30005
:1002A00048086721C40048080800C700C601643038
:1002B000C60AC7020318572946030800C700C6012B
:1002C0000A30C60AC7020318602946036729C60018
:1002D0000A30C60203186929460708000301B7015E
:1002E0003908B707C00B702908003408B700B601F9
:1002F0000830B400B70DB60D350836020318B60045
:10030000B40B7A29B70D08006330B0000000B00BC1
:100310008629000008008230B100DD30B000B00B4B
:100320008F29B10B8F2908008800871187160000DC
:1003300087120712842184218421080088008715F0
:100340008716000087120712842184218421080067
:0A035000FF30D400D40BAA290800E6
:00000001FF
